:020000040800F2
:1000000000100020CD010008910100089B010008AC
:1000100000000000000000000000000000000000E0
:10002000000000000000000000000000A101000826
:100030000000000000000000AB010008B50100084E
:100040001D020008000000001D0200081D0200083B
:100050001D0200081D0200081D0200081D02000804
:10006000000000001D0200081D0200081D0200081B
:100070001D0200081D0200081D020008000000000B
:100080001D02000800000000000000001D02000822
:10009000000000001D0200081D0200081D020008EB
:1000A000000000001D020008000000001D02000802
:1000B0000000000000000000000000000000000040
:1000C00010B5064C2378002B07D1054B002B02D02E
:1000D000044800E000BF0123237010BD040000208D
:1000E000000000008C020008044B10B5002B03D068
:1000F0000349044800E000BF10BDC04600000000F6
:10010000080000208C02000880B582B000AF1B4BB5
:100110001A681A4B04210A431A60194B1A68184BC3
:1001200018490A401A60164B1A68154B802189033A
:100130000A431A60144B1A68134B802189010A4341
:100140001A6000237B6002E07B6801337B607A6881
:10015000F423FF339A42F7DD0B4B1A680A4B0B4925
:100160000A401A6000233B6002E03B6801333B60B9
:100170003A68F423FF339A42F7DDDBE718100240B8
:1001800004080140FFFF0FFF0C080140FFDFFFFFE5
:1001900080B500AFC046BD4680BD80B500AFFEE76C
:1001A00080B500AFC046BD4680BD80B500AFC0463B
:1001B000BD4680BD80B500AF00F032F8C046BD46F8
:1001C00080BD80B500AFC046BD4680BD0D488546A8
:1001D0000D480E490E4A002302E0D458C45004339F
:1001E000C4188C42F9D30B4A0B4C002301E0136076
:1001F0000432A242FBD3FFF7E4FF00F023F8FFF73D
:1002000083FFFEE700100020000000200400002013
:10021000AC0200080400002024000020FEE70000DB
:1002200080B500AF054B1B781A00054B1B68D21830
:10023000034B1A60C046BD4680BDC046000000208A
:100240002000002070B500260C4D0D4C641BA4103E
:10025000A64209D1002600F019F80A4D0A4C641B89
:10026000A410A64205D170BDB300EB5898470136E3
:10027000EEE7B300EB5898470136F2E7A402000816
:10028000A4020008A4020008A8020008F8B5C046AD
:10029000F8BC08BC9E467047F8B5C046F8BC08BC20
:0402A0009E467047BF
:0402A400E900000865
:0402A800C100000889
:0402AC00010000004D
:04000005080001CD21
:00000001FF
